{
  "_format": "hh-sol-artifact-1",
  "contractName": "Staking",
  "sourceName": "contracts/Staking.sol",
  "abi": [
    {
      "inputs": [
        {
          "internalType": "uint256",
          "name": "currentEthPrice",
          "type": "uint256"
        }
      ],
      "stateMutability": "payable",
      "type": "constructor"
    },
    {
      "inputs": [
        {
          "internalType": "string",
          "name": "name",
          "type": "string"
        },
        {
          "internalType": "string",
          "name": "symbol",
          "type": "string"
        },
        {
          "internalType": "address",
          "name": "tokenAddress",
          "type": "address"
        },
        {
          "internalType": "uint256",
          "name": "usdPrice",
          "type": "uint256"
        },
        {
          "internalType": "uint256",
          "name": "apy",
          "type": "uint256"
        }
      ],
      "name": "addToken",
      "outputs": [],
      "stateMutability": "nonpayable",
      "type": "function"
    },
    {
      "inputs": [
        {
          "internalType": "uint256",
          "name": "apy",
          "type": "uint256"
        },
        {
          "internalType": "uint256",
          "name": "value",
          "type": "uint256"
        },
        {
          "internalType": "uint256",
          "name": "numberDays",
          "type": "uint256"
        }
      ],
      "name": "calculateInterest",
      "outputs": [
        {
          "internalType": "uint256",
          "name": "",
          "type": "uint256"
        }
      ],
      "stateMutability": "pure",
      "type": "function"
    },
    {
      "inputs": [
        {
          "internalType": "uint256",
          "name": "createdDate",
          "type": "uint256"
        }
      ],
      "name": "calculateNumberDays",
      "outputs": [
        {
          "internalType": "uint256",
          "name": "",
          "type": "uint256"
        }
      ],
      "stateMutability": "view",
      "type": "function"
    },
    {
      "inputs": [
        {
          "internalType": "uint256",
          "name": "positionId",
          "type": "uint256"
        }
      ],
      "name": "closePosition",
      "outputs": [],
      "stateMutability": "nonpayable",
      "type": "function"
    },
    {
      "inputs": [],
      "name": "currentPositionId",
      "outputs": [
        {
          "internalType": "uint256",
          "name": "",
          "type": "uint256"
        }
      ],
      "stateMutability": "view",
      "type": "function"
    },
    {
      "inputs": [],
      "name": "currentTokenId",
      "outputs": [
        {
          "internalType": "uint256",
          "name": "",
          "type": "uint256"
        }
      ],
      "stateMutability": "view",
      "type": "function"
    },
    {
      "inputs": [
        {
          "internalType": "uint256",
          "name": "positionId",
          "type": "uint256"
        }
      ],
      "name": "getPositionById",
      "outputs": [
        {
          "components": [
            {
              "internalType": "uint256",
              "name": "positionId",
              "type": "uint256"
            },
            {
              "internalType": "address",
              "name": "walletAddress",
              "type": "address"
            },
            {
              "internalType": "string",
              "name": "name",
              "type": "string"
            },
            {
              "internalType": "string",
              "name": "symbol",
              "type": "string"
            },
            {
              "internalType": "uint256",
              "name": "createdDate",
              "type": "uint256"
            },
            {
              "internalType": "uint256",
              "name": "apy",
              "type": "uint256"
            },
            {
              "internalType": "uint256",
              "name": "tokenQuantity",
              "type": "uint256"
            },
            {
              "internalType": "uint256",
              "name": "usdValue",
              "type": "uint256"
            },
            {
              "internalType": "uint256",
              "name": "ethValue",
              "type": "uint256"
            },
            {
              "internalType": "bool",
              "name": "open",
              "type": "bool"
            }
          ],
          "internalType": "struct Staking.Position",
          "name": "",
          "type": "tuple"
        }
      ],
      "stateMutability": "view",
      "type": "function"
    },
    {
      "inputs": [
        {
          "internalType": "string",
          "name": "tokenSymbol",
          "type": "string"
        }
      ],
      "name": "getToken",
      "outputs": [
        {
          "components": [
            {
              "internalType": "uint256",
              "name": "tokenId",
              "type": "uint256"
            },
            {
              "internalType": "string",
              "name": "name",
              "type": "string"
            },
            {
              "internalType": "string",
              "name": "symbol",
              "type": "string"
            },
            {
              "internalType": "address",
              "name": "tokenAddress",
              "type": "address"
            },
            {
              "internalType": "uint256",
              "name": "usdPrice",
              "type": "uint256"
            },
            {
              "internalType": "uint256",
              "name": "ethPrice",
              "type": "uint256"
            },
            {
              "internalType": "uint256",
              "name": "apy",
              "type": "uint256"
            }
          ],
          "internalType": "struct Staking.Token",
          "name": "",
          "type": "tuple"
        }
      ],
      "stateMutability": "view",
      "type": "function"
    },
    {
      "inputs": [],
      "name": "getTokenIdsForAddress",
      "outputs": [
        {
          "internalType": "uint256[]",
          "name": "",
          "type": "uint256[]"
        }
      ],
      "stateMutability": "view",
      "type": "function"
    },
    {
      "inputs": [],
      "name": "getTokenSymbols",
      "outputs": [
        {
          "internalType": "string[]",
          "name": "",
          "type": "string[]"
        }
      ],
      "stateMutability": "view",
      "type": "function"
    },
    {
      "inputs": [
        {
          "internalType": "uint256",
          "name": "positionId",
          "type": "uint256"
        },
        {
          "internalType": "uint256",
          "name": "newCreatedDate",
          "type": "uint256"
        }
      ],
      "name": "modifyCreatedDate",
      "outputs": [],
      "stateMutability": "nonpayable",
      "type": "function"
    },
    {
      "inputs": [],
      "name": "owner",
      "outputs": [
        {
          "internalType": "address",
          "name": "",
          "type": "address"
        }
      ],
      "stateMutability": "view",
      "type": "function"
    },
    {
      "inputs": [
        {
          "internalType": "address",
          "name": "",
          "type": "address"
        },
        {
          "internalType": "uint256",
          "name": "",
          "type": "uint256"
        }
      ],
      "name": "positionIdsByAddress",
      "outputs": [
        {
          "internalType": "uint256",
          "name": "",
          "type": "uint256"
        }
      ],
      "stateMutability": "view",
      "type": "function"
    },
    {
      "inputs": [
        {
          "internalType": "uint256",
          "name": "",
          "type": "uint256"
        }
      ],
      "name": "positions",
      "outputs": [
        {
          "internalType": "uint256",
          "name": "positionId",
          "type": "uint256"
        },
        {
          "internalType": "address",
          "name": "walletAddress",
          "type": "address"
        },
        {
          "internalType": "string",
          "name": "name",
          "type": "string"
        },
        {
          "internalType": "string",
          "name": "symbol",
          "type": "string"
        },
        {
          "internalType": "uint256",
          "name": "createdDate",
          "type": "uint256"
        },
        {
          "internalType": "uint256",
          "name": "apy",
          "type": "uint256"
        },
        {
          "internalType": "uint256",
          "name": "tokenQuantity",
          "type": "uint256"
        },
        {
          "internalType": "uint256",
          "name": "usdValue",
          "type": "uint256"
        },
        {
          "internalType": "uint256",
          "name": "ethValue",
          "type": "uint256"
        },
        {
          "internalType": "bool",
          "name": "open",
          "type": "bool"
        }
      ],
      "stateMutability": "view",
      "type": "function"
    },
    {
      "inputs": [
        {
          "internalType": "string",
          "name": "symbol",
          "type": "string"
        },
        {
          "internalType": "uint256",
          "name": "tokenQuantity",
          "type": "uint256"
        }
      ],
      "name": "stakeTokens",
      "outputs": [],
      "stateMutability": "nonpayable",
      "type": "function"
    },
    {
      "inputs": [
        {
          "internalType": "string",
          "name": "",
          "type": "string"
        }
      ],
      "name": "stakedTokens",
      "outputs": [
        {
          "internalType": "uint256",
          "name": "",
          "type": "uint256"
        }
      ],
      "stateMutability": "view",
      "type": "function"
    },
    {
      "inputs": [
        {
          "internalType": "uint256",
          "name": "",
          "type": "uint256"
        }
      ],
      "name": "tokenSymbols",
      "outputs": [
        {
          "internalType": "string",
          "name": "",
          "type": "string"
        }
      ],
      "stateMutability": "view",
      "type": "function"
    },
    {
      "inputs": [
        {
          "internalType": "string",
          "name": "",
          "type": "string"
        }
      ],
      "name": "tokens",
      "outputs": [
        {
          "internalType": "uint256",
          "name": "tokenId",
          "type": "uint256"
        },
        {
          "internalType": "string",
          "name": "name",
          "type": "string"
        },
        {
          "internalType": "string",
          "name": "symbol",
          "type": "string"
        },
        {
          "internalType": "address",
          "name": "tokenAddress",
          "type": "address"
        },
        {
          "internalType": "uint256",
          "name": "usdPrice",
          "type": "uint256"
        },
        {
          "internalType": "uint256",
          "name": "ethPrice",
          "type": "uint256"
        },
        {
          "internalType": "uint256",
          "name": "apy",
          "type": "uint256"
        }
      ],
      "stateMutability": "view",
      "type": "function"
    }
  ],
  "bytecode": "0x6080604052600180556001600555604051611ded380380611ded83398101604081905261002b91610045565b600255600080546001600160a01b0319163317905561005d565b600060208284031215610056578081fd5b5051919050565b611d818061006c6000396000f3fe608060405234801561001057600080fd5b50600436106101155760003560e01c80636faf6ea3116100a257806399fbab881161007157806399fbab881461024e578063a126d60114610277578063b838ec861461028a578063c1733f68146102aa578063c41cc502146102ca57600080fd5b80636faf6ea3146101e857806371d772ca146101fd5780638da5cb5b1461021057806394b308ab1461023b57600080fd5b80631131c8cd116100e95780631131c8cd146101845780632406b5c01461018d57806327f70655146101a057806345eae373146101b55780636e7ddea8146101c857600080fd5b80629a9b7b1461011a57806304c2320b1461013657806305b938161461015c57806305e1bd8c14610171575b600080fd5b61012360015481565b6040519081526020015b60405180910390f35b610149610144366004611769565b6102f5565b60405161012d9796959493929190611c1b565b610164610456565b60405161012d919061196d565b61012361017f36600461184c565b61052f565b61012360055481565b61012361019b366004611813565b610568565b6101b36101ae36600461182b565b61059d565b005b6101236101c33660046115fe565b6105e5565b6101db6101d6366004611813565b610616565b60405161012d9190611a12565b6101f06106c2565b60405161012d91906119ce565b6101b361020b36600461171f565b610723565b600054610223906001600160a01b031681565b6040516001600160a01b03909116815260200161012d565b6101b361024936600461168e565b610b39565b61026161025c366004611813565b610d25565b60405161012d9a99989796959493929190611ba3565b6101b3610285366004611813565b610e92565b61029d610298366004611813565b6110ab565b60405161012d9190611a66565b6102bd6102b836600461164e565b6112b3565b60405161012d9190611b22565b6101236102d8366004611769565b805160208183018101805160088252928201919093012091525481565b80516020818301810180516004825292820191909301209152805460018201805491929161032290611ce4565b80601f016020809104026020016040519081016040528092919081815260200182805461034e90611ce4565b801561039b5780601f106103705761010080835404028352916020019161039b565b820191906000526020600020905b81548152906001019060200180831161037e57829003601f168201915b5050505050908060020180546103b090611ce4565b80601f01602080910402602001604051908101604052809291908181526020018280546103dc90611ce4565b80156104295780601f106103fe57610100808354040283529160200191610429565b820191906000526020600020905b81548152906001019060200180831161040c57829003601f168201915b5050505060038301546004840154600585015460069095015493946001600160a01b039092169390925087565b60606003805480602002602001604051908101604052809291908181526020016000905b8282101561052657838290600052602060002001805461049990611ce4565b80601f01602080910402602001604051908101604052809291908181526020018280546104c590611ce4565b80156105125780601f106104e757610100808354040283529160200191610512565b820191906000526020600020905b8154815290600101906020018083116104f557829003601f168201915b50505050508152602001906001019061047a565b50505050905090565b600061016d612710836105428688611cae565b61054c9190611cae565b6105569190611c8e565b6105609190611c8e565b949350505050565b60006018603c806105798542611ccd565b6105839190611c8e565b61058d9190611c8e565b6105979190611c8e565b92915050565b6000546001600160a01b031633146105d05760405162461bcd60e51b81526004016105c790611a25565b60405180910390fd5b60009182526006602052604090912060040155565b6007602052816000526040600020818154811061060157600080fd5b90600052602060002001600091509150505481565b6003818154811061062657600080fd5b90600052602060002001600091509050805461064190611ce4565b80601f016020809104026020016040519081016040528092919081815260200182805461066d90611ce4565b80156106ba5780601f1061068f576101008083540402835291602001916106ba565b820191906000526020600020905b81548152906001019060200180831161069d57829003601f168201915b505050505081565b3360009081526007602090815260409182902080548351818402810184019094528084526060939283018282801561071957602002820191906000526020600020905b815481526020019060010190808311610705575b5050505050905090565b600483836040516107359291906118c2565b908152604051908190036020019020546107915760405162461bcd60e51b815260206004820152601b60248201527f5468697320746f6b656e2063616e6e6f74206265207374616b6564000000000060448201526064016105c7565b600483836040516107a39291906118c2565b908152604051908190036020018120600301546323b872dd60e01b8252336004830152306024830152604482018390526001600160a01b0316906323b872dd90606401602060405180830381600087803b15801561080057600080fd5b505af1158015610814573d6000803e3d6000fd5b505050506040513d601f19601f820116820180604052508101906108389190611627565b506040518061014001604052806005548152602001336001600160a01b031681526020016004858560405161086e9291906118c2565b9081526020016040518091039020600101805461088a90611ce4565b80601f01602080910402602001604051908101604052809291908181526020018280546108b690611ce4565b80156109035780601f106108d857610100808354040283529160200191610903565b820191906000526020600020905b8154815290600101906020018083116108e657829003601f168201915b5050505050815260200184848080601f0160208091040260200160405190810160405280939291908181526020018383808284376000920191909152505050908252504260208201526040805191019060049061096390879087906118c2565b908152602001604051809103902060060154815260200182815260200182600486866040516109939291906118c2565b9081526020016040518091039020600401546109af9190611cae565b815260200160025483600487876040516109ca9291906118c2565b9081526020016040518091039020600401546109e69190611cae565b6109f09190611c8e565b815260016020918201819052600554600090815260068352604090819020845181558484015192810180546001600160a01b0319166001600160a01b039094169390931790925583015180519192610a509260028501929091019061148e565b5060608201518051610a6c91600384019160209091019061148e565b506080820151600482015560a082015160058083019190915560c0830151600683015560e08301516007808401919091556101008401516008840155610120909301516009909201805460ff1916921515929092179091553360009081526020928352604081208254815460018181018455928452948320909401939093558154610af8908490611c76565b925050819055508060088484604051610b129291906118c2565b90815260200160405180910390206000828254610b2f9190611c76565b9091555050505050565b6000546001600160a01b03163314610b635760405162461bcd60e51b81526004016105c790611a25565b60038054600181018255600091909152610ba0907fc2575a0e9e593c00f959f8c92f12db2869c3395a3b0502d05e2516446f71f85b018686611512565b506040518060e00160405280600154815260200188888080601f016020809104026020016040519081016040528093929190818152602001838380828437600092019190915250505090825250604080516020601f8901819004810282018101909252878152918101919088908890819084018382808284376000920191909152505050908252506001600160a01b038516602082015260408101849052600254606090910190610c519085611c8e565b81526020018281525060048686604051610c6c9291906118c2565b9081526020016040518091039020600082015181600001556020820151816001019080519060200190610ca092919061148e565b5060408201518051610cbc91600284019160209091019061148e565b5060608201516003820180546001600160a01b0319166001600160a01b039092169190911790556080820151600482015560a0820151600582015560c090910151600690910155600180548190600090610d17908390611c76565b909155505050505050505050565b60066020526000908152604090208054600182015460028301805492936001600160a01b0390921692610d5790611ce4565b80601f0160208091040260200160405190810160405280929190818152602001828054610d8390611ce4565b8015610dd05780601f10610da557610100808354040283529160200191610dd0565b820191906000526020600020905b815481529060010190602001808311610db357829003601f168201915b505050505090806003018054610de590611ce4565b80601f0160208091040260200160405190810160405280929190818152602001828054610e1190611ce4565b8015610e5e5780601f10610e3357610100808354040283529160200191610e5e565b820191906000526020600020905b815481529060010190602001808311610e4157829003601f168201915b5050506004840154600585015460068601546007870154600888015460099098015496979396929550909350919060ff168a565b6000818152600660205260409020600101546001600160a01b03163314610eeb5760405162461bcd60e51b815260206004820152600d60248201526c2737ba103a34329037bbb732b960991b60448201526064016105c7565b60008181526006602052604090206009015460ff161515600114610f515760405162461bcd60e51b815260206004820152601760248201527f506f736974696f6e20616c726561647920636c6f73656400000000000000000060448201526064016105c7565b600081815260066020526040908190209051600491610f75916003909101906118d2565b90815260408051918290036020908101832060030154600085815260069283905292909220015463a9059cbb60e01b835233600484015260248301526001600160a01b03169063a9059cbb90604401602060405180830381600087803b158015610fde57600080fd5b505af1158015610ff2573d6000803e3d6000fd5b505050506040513d601f19601f820116820180604052508101906110169190611627565b5060008181526006602052604081206004015461103290610568565b60008381526006602052604081206005810154600890910154929350909161105b91908461052f565b60405190915033908290600081818185875af1925050503d806000811461109e576040519150601f19603f3d011682016040523d82523d6000602084013e6110a3565b606091505b505050505050565b61110c6040518061014001604052806000815260200160006001600160a01b03168152602001606081526020016060815260200160008152602001600081526020016000815260200160008152602001600081526020016000151581525090565b6000828152600660209081526040918290208251610140810184528154815260018201546001600160a01b031692810192909252600281018054929391929184019161115790611ce4565b80601f016020809104026020016040519081016040528092919081815260200182805461118390611ce4565b80156111d05780601f106111a5576101008083540402835291602001916111d0565b820191906000526020600020905b8154815290600101906020018083116111b357829003601f168201915b505050505081526020016003820180546111e990611ce4565b80601f016020809104026020016040519081016040528092919081815260200182805461121590611ce4565b80156112625780601f1061123757610100808354040283529160200191611262565b820191906000526020600020905b81548152906001019060200180831161124557829003601f168201915b505050918352505060048201546020820152600582015460408201526006820154606082015260078201546080820152600882015460a082015260099091015460ff16151560c09091015292915050565b6112fc6040518060e0016040528060008152602001606081526020016060815260200160006001600160a01b031681526020016000815260200160008152602001600081525090565b6004838360405161130e9291906118c2565b90815260200160405180910390206040518060e00160405290816000820154815260200160018201805461134190611ce4565b80601f016020809104026020016040519081016040528092919081815260200182805461136d90611ce4565b80156113ba5780601f1061138f576101008083540402835291602001916113ba565b820191906000526020600020905b81548152906001019060200180831161139d57829003601f168201915b505050505081526020016002820180546113d390611ce4565b80601f01602080910402602001604051908101604052809291908181526020018280546113ff90611ce4565b801561144c5780601f106114215761010080835404028352916020019161144c565b820191906000526020600020905b81548152906001019060200180831161142f57829003601f168201915b505050918352505060038201546001600160a01b0316602082015260048201546040820152600582015460608201526006909101546080909101529392505050565b82805461149a90611ce4565b90600052602060002090601f0160209004810192826114bc5760008555611502565b82601f106114d557805160ff1916838001178555611502565b82800160010185558215611502579182015b828111156115025782518255916020019190600101906114e7565b5061150e929150611586565b5090565b82805461151e90611ce4565b90600052602060002090601f0160209004810192826115405760008555611502565b82601f106115595782800160ff19823516178555611502565b82800160010185558215611502579182015b8281111561150257823582559160200191906001019061156b565b5b8082111561150e5760008155600101611587565b80356001600160a01b03811681146115b257600080fd5b919050565b60008083601f8401126115c8578081fd5b50813567ffffffffffffffff8111156115df578182fd5b6020830191508360208285010111156115f757600080fd5b9250929050565b60008060408385031215611610578182fd5b6116198361159b565b946020939093013593505050565b600060208284031215611638578081fd5b81518015158114611647578182fd5b9392505050565b60008060208385031215611660578182fd5b823567ffffffffffffffff811115611676578283fd5b611682858286016115b7565b90969095509350505050565b600080600080600080600060a0888a0312156116a8578283fd5b873567ffffffffffffffff808211156116bf578485fd5b6116cb8b838c016115b7565b909950975060208a01359150808211156116e3578485fd5b506116f08a828b016115b7565b909650945061170390506040890161159b565b9250606088013591506080880135905092959891949750929550565b600080600060408486031215611733578283fd5b833567ffffffffffffffff811115611749578384fd5b611755868287016115b7565b909790965060209590950135949350505050565b60006020828403121561177a578081fd5b813567ffffffffffffffff80821115611791578283fd5b818401915084601f8301126117a4578283fd5b8135818111156117b6576117b6611d35565b604051601f8201601f19908116603f011681019083821181831017156117de576117de611d35565b816040528281528760208487010111156117f6578586fd5b826020860160208301379182016020019490945295945050505050565b600060208284031215611824578081fd5b5035919050565b6000806040838503121561183d578182fd5b50508035926020909101359150565b600080600060608486031215611860578283fd5b505081359360208301359350604090920135919050565b60008151808452815b8181101561189c57602081850181015186830182015201611880565b818111156118ad5782602083870101525b50601f01601f19169290920160200192915050565b8183823760009101908152919050565b600080835482600182811c9150808316806118ee57607f831692505b602080841082141561190e57634e487b7160e01b87526022600452602487fd5b81801561192257600181146119335761195f565b60ff1986168952848901965061195f565b60008a815260209020885b868110156119575781548b82015290850190830161193e565b505084890196505b509498975050505050505050565b6000602080830181845280855180835260408601915060408160051b8701019250838701855b828110156119c157603f198886030184526119af858351611877565b94509285019290850190600101611993565b5092979650505050505050565b6020808252825182820181905260009190848201906040850190845b81811015611a06578351835292840192918401916001016119ea565b50909695505050505050565b6020815260006116476020830184611877565b60208082526021908201527f4f6e6c79206f776e6572206d61792063616c6c20746869732066756e6374696f6040820152603760f91b606082015260800190565b602081528151602082015260006020830151611a8d60408401826001600160a01b03169052565b506040830151610140806060850152611aaa610160850183611877565b91506060850151601f19858403016080860152611ac78382611877565b925050608085015160a085015260a085015160c085015260c085015160e085015260e0850151610100818187015280870151915050610120818187015280870151915050611b188286018215159052565b5090949350505050565b60208152815160208201526000602083015160e06040840152611b49610100840182611877565b90506040840151601f19848303016060850152611b668282611877565b91505060018060a01b036060850151166080840152608084015160a084015260a084015160c084015260c084015160e08401528091505092915050565b8a81526001600160a01b038a16602082015261014060408201819052600090611bce8382018c611877565b90508281036060840152611be2818b611877565b6080840199909952505060a081019590955260c085019390935260e0840191909152610100830152151561012090910152949350505050565b87815260e060208201526000611c3460e0830189611877565b8281036040840152611c468189611877565b6001600160a01b039790971660608401525050608081019390935260a083019190915260c0909101529392505050565b60008219821115611c8957611c89611d1f565b500190565b600082611ca957634e487b7160e01b81526012600452602481fd5b500490565b6000816000190483118215151615611cc857611cc8611d1f565b500290565b600082821015611cdf57611cdf611d1f565b500390565b600181811c90821680611cf857607f821691505b60208210811415611d1957634e487b7160e01b600052602260045260246000fd5b50919050565b634e487b7160e01b600052601160045260246000fd5b634e487b7160e01b600052604160045260246000fdfea2646970667358221220eb1856399ab9a981cb09d384617a3068993402c71930aec68871449e0b0c63b964736f6c63430008040033",
  "linkReferences": {},
  "deployedLinkReferences": {}
}